{
  "contractName": "RockPaperScissors",
  "abi": [
    {
      "inputs": [],
      "name": "PAPER",
      "outputs": [
        {
          "internalType": "bytes32",
          "name": "",
          "type": "bytes32"
        }
      ],
      "stateMutability": "view",
      "type": "function",
      "constant": true
    },
    {
      "inputs": [],
      "name": "ROCK",
      "outputs": [
        {
          "internalType": "bytes32",
          "name": "",
          "type": "bytes32"
        }
      ],
      "stateMutability": "view",
      "type": "function",
      "constant": true
    },
    {
      "inputs": [],
      "name": "SCISSORS",
      "outputs": [
        {
          "internalType": "bytes32",
          "name": "",
          "type": "bytes32"
        }
      ],
      "stateMutability": "view",
      "type": "function",
      "constant": true
    },
    {
      "inputs": [
        {
          "internalType": "address",
          "name": "",
          "type": "address"
        }
      ],
      "name": "choices",
      "outputs": [
        {
          "internalType": "bytes32",
          "name": "",
          "type": "bytes32"
        }
      ],
      "stateMutability": "view",
      "type": "function",
      "constant": true
    },
    {
      "inputs": [
        {
          "internalType": "bytes32",
          "name": "choice",
          "type": "bytes32"
        }
      ],
      "name": "play",
      "outputs": [],
      "stateMutability": "nonpayable",
      "type": "function"
    },
    {
      "inputs": [
        {
          "internalType": "bytes32",
          "name": "aliceChoice",
          "type": "bytes32"
        }
      ],
      "name": "keccak",
      "outputs": [
        {
          "internalType": "bytes32",
          "name": "",
          "type": "bytes32"
        }
      ],
      "stateMutability": "pure",
      "type": "function",
      "constant": true
    },
    {
      "inputs": [
        {
          "internalType": "address",
          "name": "alice",
          "type": "address"
        },
        {
          "internalType": "bytes32",
          "name": "aliceChoice",
          "type": "bytes32"
        },
        {
          "internalType": "bytes32",
          "name": "aliceRandomness",
          "type": "bytes32"
        },
        {
          "internalType": "address",
          "name": "bob",
          "type": "address"
        },
        {
          "internalType": "bytes32",
          "name": "bobChoice",
          "type": "bytes32"
        },
        {
          "internalType": "bytes32",
          "name": "bobRandomness",
          "type": "bytes32"
        }
      ],
      "name": "evaluate",
      "outputs": [
        {
          "internalType": "address",
          "name": "",
          "type": "address"
        }
      ],
      "stateMutability": "view",
      "type": "function",
      "constant": true
    }
  ],
  "bytecode": "0x608060405234801561001057600080fd5b50610865806100206000396000f3fe608060405234801561001057600080fd5b506004361061007d5760003560e01c8063b357a0281161005b578063b357a02814610112578063b93e0e3914610130578063c44d6f871461014e578063c7a1865b1461016c5761007d565b8063410346b3146100825780636d26acee146100b257806380408e9d146100e2575b600080fd5b61009c6004803603810190610097919061061d565b610188565b6040516100a9919061079b565b60405180910390f35b6100cc60048036038101906100c791906106d7565b6101a0565b6040516100d9919061079b565b60405180910390f35b6100fc60048036038101906100f7919061064a565b6101d0565b6040516101099190610780565b60405180910390f35b61011a6104f4565b604051610127919061079b565b60405180910390f35b610138610518565b604051610145919061079b565b60405180910390f35b61015661053c565b604051610163919061079b565b60405180910390f35b610186600480360381019061018191906106d7565b610560565b005b60006020528060005260406000206000915090505481565b6000816040516020016101b39190610739565b604051602081830303815290604052805190602001209050919050565b60008060008873ffffffffffffffffffffffffffffffffffffffff1673ffffffffffffffffffffffffffffffffffffffff168152602001908152602001600020548686604051602001610224929190610754565b604051602081830303815290604052805190602001201461024457600080fd5b6000808573ffffffffffffffffffffffffffffffffffffffff1673ffffffffffffffffffffffffffffffffffffffff168152602001908152602001600020548383604051602001610296929190610754565b60405160208183030381529060405280519060200120146102b657600080fd5b828614156102c757600090506104ea565b7f524f434b000000000000000000000000000000000000000000000000000000008614801561031557507f504150455200000000000000000000000000000000000000000000000000000083145b15610322578390506104ea565b7f524f434b000000000000000000000000000000000000000000000000000000008314801561037057507f504150455200000000000000000000000000000000000000000000000000000086145b1561037d578690506104ea565b7f53434953534f5253000000000000000000000000000000000000000000000000861480156103cb57507f504150455200000000000000000000000000000000000000000000000000000083145b156103d8578690506104ea565b7f53434953534f52530000000000000000000000000000000000000000000000008314801561042657507f504150455200000000000000000000000000000000000000000000000000000086145b15610433578390506104ea565b7f524f434b000000000000000000000000000000000000000000000000000000008614801561048157507f53434953534f525300000000000000000000000000000000000000000000000083145b1561048e578690506104ea565b7f524f434b00000000000000000000000000000000000000000000000000000000831480156104dc57507f53434953534f525300000000000000000000000000000000000000000000000086145b156104e9578390506104ea565b5b9695505050505050565b7f53434953534f525300000000000000000000000000000000000000000000000081565b7f524f434b0000000000000000000000000000000000000000000000000000000081565b7f504150455200000000000000000000000000000000000000000000000000000081565b6000801b6000803373ffffffffffffffffffffffffffffffffffffffff1673ffffffffffffffffffffffffffffffffffffffff16815260200190815260200160002054146105ad57600080fd5b806000803373ffffffffffffffffffffffffffffffffffffffff1673ffffffffffffffffffffffffffffffffffffffff1681526020019081526020016000208190555050565b60008135905061060281610801565b92915050565b60008135905061061781610818565b92915050565b600060208284031215610633576106326107fc565b5b6000610641848285016105f3565b91505092915050565b60008060008060008060c08789031215610667576106666107fc565b5b600061067589828a016105f3565b965050602061068689828a01610608565b955050604061069789828a01610608565b94505060606106a889828a016105f3565b93505060806106b989828a01610608565b92505060a06106ca89828a01610608565b9150509295509295509295565b6000602082840312156106ed576106ec6107fc565b5b60006106fb84828501610608565b91505092915050565b61070d816107b6565b82525050565b61071c816107c8565b82525050565b61073361072e826107c8565b6107f2565b82525050565b60006107458284610722565b60208201915081905092915050565b60006107608285610722565b6020820191506107708284610722565b6020820191508190509392505050565b60006020820190506107956000830184610704565b92915050565b60006020820190506107b06000830184610713565b92915050565b60006107c1826107d2565b9050919050565b6000819050919050565b600073ffffffffffffffffffffffffffffffffffffffff82169050919050565b6000819050919050565b600080fd5b61080a816107b6565b811461081557600080fd5b50565b610821816107c8565b811461082c57600080fd5b5056fea2646970667358221220d02b672543c330e91e1cb05435a762548447572872aef11920ae2b8438a5029d64736f6c63430008070033",
  "immutableReferences": {},
  "source": "// SPDX-License-Identifier: MIT\npragma solidity ^0.8.4;\n\ncontract RockPaperScissors {\n    bytes32 public constant ROCK = \"ROCK\";\n    bytes32 public constant PAPER = \"PAPER\";\n    bytes32 public constant SCISSORS = \"SCISSORS\";\n\n    mapping(address => bytes32) public choices;\n\n    function play(bytes32 choice) external {\n        require(choices[msg.sender] == bytes32(0));\n        choices[msg.sender] = choice;\n    }\n\n    function keccak(bytes32 aliceChoice)\n        external\n        pure\n        returns (bytes32)\n    {\n        return keccak256(abi.encodePacked(aliceChoice));\n    }\n\n    function evaluate(\n        address alice,\n        bytes32 aliceChoice,\n        bytes32 aliceRandomness,\n        address bob,\n        bytes32 bobChoice,\n        bytes32 bobRandomness\n    ) external view returns (address) {\n        require(\n            keccak256(abi.encodePacked(aliceChoice, aliceRandomness)) ==\n                choices[alice]\n        );\n        require(\n            keccak256(abi.encodePacked(bobChoice, bobRandomness)) ==\n                choices[bob]\n        );\n\n        if (aliceChoice == bobChoice) {\n            // this is draw\n            return address(0);\n        }\n\n        if (aliceChoice == ROCK && bobChoice == PAPER) {\n            return bob;\n        } else if (bobChoice == ROCK && aliceChoice == PAPER) {\n            return alice;\n        } else if (aliceChoice == SCISSORS && bobChoice == PAPER) {\n            return alice;\n        } else if (bobChoice == SCISSORS && aliceChoice == PAPER) {\n            return bob;\n        } else if (aliceChoice == ROCK && bobChoice == SCISSORS) {\n            return alice;\n        } else if (bobChoice == ROCK && aliceChoice == SCISSORS) {\n            return bob;\n        }\n    }\n}\n",
  "sourcePath": "/Users/steveleec/Documents/Currently learning/NewLine/rock-paper-scissors/contracts/RockPaperScissors.sol",
  "compiler": {
    "name": "solc",
    "version": "0.8.7+commit.e28d00a7.Emscripten.clang"
  },
  "schemaVersion": "3.4.2",
  "updatedAt": "2021-08-21T02:45:59.128Z",
  "networkType": "ethereum",
  "devdoc": {
    "kind": "dev",
    "methods": {},
    "version": 1
  },
  "userdoc": {
    "kind": "user",
    "methods": {},
    "version": 1
  }
}